:100BDE0075A15575A1AAE5B954F84404F5B9E4F523
:020BEE00A12242
:0E0BF000EF4E600905A1EF1F70F61E80F32284
:100B7100CDEFCDCCEECCED4C600E7FE87E03120BB9
:090B8100F0ED1D70F11C80EE2264
:04005F0043C6102262
:1008D100C29FD29EC29DC2CDC2CC438780900050A0
:1008E1001204FA00000082E47B0AFAF9F890005041
:1008F100E0FCA3E0FDA3E0FEA3E0FF12045C900096
:1009010054EBF0900050E0FCA3E0FDA3E0FEA3E077
:10091100FFE47B0AFAF9F812045C9000501204EE2D
:10092100900054E0C39405401F900050E0FCA3E008
:10093100FDA3E0FEA3E02401FFE43EFEE43DFDE46F
:100941003CFC9000501204EEE589540F4420F589D7
:1009510043C9A0900050A3A3A3E0F404F58DD28E67
:04096100D299D29CB9
:01096500226F
:080033003098FDC298AF99223C
:080C07008F993099FDC299227A
:100B8A0075A15575A1AAEF600543B101800353B160
:070B9A00FEE4F5A1F5FF22C6
:030C0F008FFF2232
:100BCB004750494F5F5354415455533A20253032C7
:030BDB00780A0095
:1009F200EF14601C14602B14603C2403704A7401D1
:100A0200C8EDC8088002C333D8FCF4529252932234
:100A12007401C8EDC8088002C333D8FCFFF45292B7
:100A220080237401C8EDC8088002C333D8FCFF429A
:100A320092EFF45293227401C8EDC8088002C333C6
:090A4200D8FCFF4292EF4293221E
:100A4B00EF14601C14602B14603C2403704A740177
:100A5B00C8EDC8088002C333D8FCF45296529722D3
:100A6B007401C8EDC8088002C333D8FCFFF452965A
:100A7B0080237401C8EDC8088002C333D8FCFF4241
:100A8B0096EFF45297227401C8EDC8088002C33365
:090A9B00D8FCFF4296EF429722BD
:090BFE0053C77F43C73CD2EE222D
:03006300020AF09E
:100AF000C0E0C0F0C083C082C0D075D0087BFF7A50
:100B00000B79CBE5C65440FF900059E4F0A3EFF019
:0E0B10001200D1D0D0D082D083D0F0D0E0320D
:100B1E00446562756720646174613A417072203277
:100B2E003920323032302C44656275672074696D1D
:0C0B3E00653A31343A31363A32360A005A
:10000300120BDE7F057E00120B717D037F01120A46
:100013004B1208D17BFF7A0B791E1200D1E4FB7DD2
:10002300017FF0120761E4FF12003E1205C980FB55
:100AA4004B65795F467265654275665B25645D3D9D
:100AB400256409000A006368202564207072657348
:100AC4007365642C76616C75653A25640A00636805
:100AD4002025642075702C76616C75653A25640A4E
:0C0AE4000063685B25645D3D256409002B
:100BB700440090030405064100940041008F004162
:030BC700007E00AD
:10003E00EFD39404501874902FF582E43400F583B6
:10004E00E0FFE5C354F8FEEF4EF5C37F00227FFFBD
:01005E00227F
:05076100900050EBF0D8
:10076600EF540C60037FFF22EFF452935292ED6038
:100776000343C310E4900051F0900051E0FFC3948E
:10078600044003020817E4A3F0A3F07D0512003E1F
:10079600CFEDCF1DEF6023E4FFFEE5C320E70B0F8F
:1007A600EF70010E4E70F37FFF22900053E025C4D8
:1007B600F0900052E035C5F080D6900052E0FEA3DE
:1007C600E0FF7C007D051203CB900051E0FD25E0A3
:1007D6002487F582E43400F583EEF0A3EFF07BFF87
:1007E6007A0A79A4EDFF900059E4F0A3EFF025E032
:1007F6002487F582E43400F583E0FFA3E090005BF4
:10080600CFF0A3EFF01200D1900051E004F0020700
:100816007F7BFF7A0A79B81200D1900050E060021F
:04082600D2E97F0094
:01082A0022AB
:100BA100D3EF9DEE9C4007EF9DFFEE9CFE22C3ED2F
:060BB1009FFFEC9EFE22F6
:1005C900E4900050F0900050E0FFC394044003020F
:1005D900075EE4FDFC790512003E900050E024908E
:1005E900F582E43400F583E014900051F0CFE9CFAF
:1005F90019EF601DE4FFFEE5C320E70B0FEF700163
:100609000E4E70F37FFF22E5C42DFDE5C53CFC804D
:10061900DCCEECCECFEDCF7C007D051203CB900074
:1006290050E0FD25E0247FF582E43400F583EEF007
:10063900A3EFF0ED25E02487F582E43400F583E0AB
:10064900FEA3E0FFED25E0247FF582E43400F58385
:10065900E0FCA3E0FD120BA1900052EEF0A3EFF035
:10066900D394D0EE9407406E900050E0FF74017E61
:1006790000C8EFC8088005C333CE33CED8F9FF9040
:10068900008FE0FDEF5D70317BFF7A0A79BA900047
:1006990051E0FF900059E4F0A3EFF0900050E025FD
:1006A900E0247FF582E43400F583E0FFA3E09000C5
:1006B9005BCFF0A3EFF01200D190008FE0FF900024
:1006C90050E0FE7401C8EEC8088002C333D8FC4F5D
:1006D90090008FF08076C3900053E094F49000521C
:1006E900E094015067900050E0FF74017E00C8EF6C
:1006F900C8088005C333CE33CED8F9FF90008FE008
:10070900FDEF5D6047E0FF900050E0FE7401C8EE28
:10071900C8088002C333D8FCF45F90008FF07BFFD8
:100729007A0A79D2900051E0FD900059E4F0A3EDE6
:10073900F0EE25E0247FF582E43400F583E0FFA3A1
:10074900E090005BCFF0A3EFF01200D1900050E0F1
:0707590004F00205CE7F0051
:010760002276
:03003B0002082B8D
:0D082B00C0E0C0F0C083C082C0D075D0080E
:10083800ADC4ACC590007EE0FF25E02487F582E4D6
:100848003400F583E0FAA3E0249CFBEA34FFFAC302
:10085800ED9BEC9A5023900094E0FE74902FF58263
:10086800E43400F583E014FF7401C8EFC80880027F
:10087800C333D8FC4E900094F07BFF7A0A79E59058
:10088800007EE02490F582E43400F583E024FFFE46
:10089800E434FF900059F0A3CEF0CEECCECFEDCFEC
:1008A800A3ECF0A3EFF01200D190007EE004F0C3B7
:0E08B80094044002E4F090007EE0FF12003E47
:0B08C600D0D0D082D083D0F0D0E03240
:030000000209668C
:0C096600787FE4F6D8FD7581230209AD0E
:1003CB00BC000BBE0029EF8DF084FFADF022E4CC16
:1003DB00F875F008EF2FFFEE33FEEC33FCEE9DECDF
:1003EB00984005FCEE9DFE0FD5F0E9E4CEFD22ED25
:1003FB00F8F5F0EE8420D21CFEADF075F008EF2F6F
:10040B00FFED33FD4007985006D5F0F222C398FD5F
:05041B000FD5F0EA22FC
:1004200075F008758200EF2FFFEE33FECD33CDCC93
:1004300033CCC58233C5829BED9AEC99E582984016
:100440000CF582EE9BFEED9AFDEC99FC0FD5F0D6F3
:10045000E4CEFBE4CDFAE4CCF9A88222B800C1B91D
:100460000059BA002DEC8BF084CFCECDFCE5F0CB5B
:10047000F97818EF2FFFEE33FEED33FDEC33FCEB94
:1004800033FB10D703994004EB99FB0FD8E5E4F94F
:10049000FA227818EF2FFFEE33FEED33FDEC33FC3C
:1004A000C933C910D7059BE99A4007EC9BFCE99A30
:1004B000F90FD8E0E4C9FAE4CCFB2275F010EF2F75
:1004C000FFEE33FEED33FDCC33CCC833C810D70775
:1004D0009BEC9AE899400AED9BFDEC9AFCE899F8B0
:0E04E0000FD5F0DAE4CDFBE4CCFAE4C8F92243
:0C04EE00ECF0A3EDF0A3EEF0A3EFF02281
:1004FA00A8828583F0D083D08212051112051112C9
:10050A000511120511E473E493A3C583C5F0C583ED
:10051A00C8C582C8F0A3C583C5F0C583C8C582C84B
:01052A0022AE
:10006600E51A2459F582E43400F583E0051A229056
:100076000056301903900059E475F0011205830209
:10008600052B2012E97F2ED2128018EF540F2490F0
:10009600D43440D4FF30160BEF24BFB41A005003FB
:1000A6002461FFE51B6002151B051EE51E70020597
:1000B6001D30190E900056E475F001120583EF020B
:1000C6000571020B4A7403D2198003E4C219F51AAA
:1000D60090005612059AE4F51BF51DF51EE51B600A
:1000E600077F201200A980F5751CFFC213C212C239
:1000F60014C215C217C218C21A120075FF700D304D
:1001060019057F001200BAAF1EAE1D22B4255FC2CC
:10011600D5C216120075FF24D0B40A00501A75F025
:100126000A781B30D50508B6FF0106C6A426F620B8
:10013600D5047002D21580D924CFB41A00EF50042A
:10014600C2E5D2160202BBD21380C6D21280C0D23A
:100156001480BCD2D580BAD21780B47F201200A9F1
:100166002014077401B51B0040F1120066FF12004F
:10017600A90200E3D21AD2188095120066FB12007B
:1001860066FA120066F94A4B7006798C7A037BFF91
:1001960020142EE51B602A7E008E827583001205D0
:1001A6004460060EEE651C70F0C2D5EBC0E0EAC0F6
:1001B600E0E9C0E0EE120302D0E0F9D0E0FAD0E0C8
:1001C600FB12052BFF60AAEBC0E0EAC0E0E9C0E045
:1001D6001200A9D0E02401F9D0E03400FAD0E0FB07
:1001E600E51C0460DCD51CD980877BFF7A0279FE8A
:1001F600D214809C791080027908C218C21A80082D
:10020600D2D5790A8004790AC2D5E51C047002F5B4
:100216001CE4FAFDFEFF120066FC7B082013131295
:100226000066FD7B1030120A120066FE120066FFA1
:100236007B20EC3382D592D55013C3E43012069F4F
:10024600FFE49EFEE42013039DFDE49CFCE4CBF852
:10025600C213EC700CCFCECDCCE824F8F870F38046
:1002660017C3EF33FFEE33FEED33FDEC33FCEB3318
:10027600FB994002FB0FD8E9EB301305F8D0E0C438
:1002860048B213C0E00AEC4D4E4F78207B0070C296
:10029600EAB51C0040BCC0E0120304D0F0D0E02058
:1002A6001304C4C0E0C4B213C0F0120092D0F0D55B
:1002B600F0EB0200E31205A301805301FA58015145
:1002C6004C014D4201FE4F020644020649016643B7
:0802D600020C5501F04601F095
:1002DE004501F04703AC5001552D01592E017C2BE1
:1002EE00015D23017A2003952A011548000001744F
:1002FE003F3F3F00790AA2D5201514301709B910D7
:10030E00020404B9080104A2D520180250010420E9
:10031E0014689214B51B005034C0E07F20301519BC
:10032E007F30A21472187217500F12035BC214C2E0
:10033E0018C217C21A7F30800F301703E9C0E012BF
:10034E0000A9301703D0E0F9D0E0B51BCC30171759
:10035E007F30B9100C1200A97F583016077F7880B5
:10036E0003B908031200A93014057F2D0200A97FDE
:10037E0020201AF87F2B2018F322921480CF286E9B
:10038E00756C6C2900D2131200663013F8C2137804
:10039E001B30D50108F60201152D504349581200A5
:1003AE00662403B405004001E49003A79312009A5B
:0D03BE00743A12009AD215751B040201FA60
:10097200020003E493A3F8E493A34003F68001F298
:1009820008DFF48029E493A3F85407240CC8C33386
:10099200C4540F4420C8834004F456800146F6DF55
:1009A200E4800B0102040810204080900BB7E47E23
:1009B200019360BCA3FF543F30E509541FFEE4934A
:1009C200A360010ECF54C025E060A840B8E493A311
:1009D200FAE493A3F8E493A3C8C582C8CAC583CA3C
:1009E200F0A3C8C582C8CAC583CADFE9DEE780BEF4
:010BCA00002A
:10052B00BB010689828A83E0225002E722BBFE02CE
:09053B00E32289828A83E4932201
:10054400BB010CE58229F582E5833AF583E022506C
:1005540006E92582F8E622BBFE06E92582F8E222B6
:0D056400E58229F582E5833AF583E49322D0
:10057100BB010689828A83F0225002F722BBFE0169
:02058100F32263
:10058300F8E0FBA3A3E0F925F0F0E5821582700201
:070593001583E0FA38F022A5
:09059A00EBF0A3EAF0A3E9F02262
:1005A300D083D082F8E4937012740193700DA3A3E7
:1005B30093F8740193F5828883E4737402936860FB
:0605C300EFA3A3A380DFFB
:100B4A00EFB40A07740D120B55740A309811A8995C
:100B5A00B8130CC2983098FDA899C298B811F6300B
:070B6A0099FDC299F59922E3
:00000001FF
