:10002E0075A15575A1AAE5B954F84404F5B9E4F5DE
:02003E00A122FD
:0E108800EF4E600905A1EF1F70F61E80F322E7
:10104900AD07AC06ED4C600E7FE87E03121088ED0B
:071059001D70F11C80EE2266
:0410BF0043C61022F2
:100DA600C29FD29EC29DC2CDC2CC43878090012CE9
:100DB600120B6600000082E47B0AFAF9F890012C17
:100DC600E0FCA3E0FDA3E0FEA3E0FF120AC8900149
:100DD60030EBF090012CE0FCA3E0FDA3E0FEA3E0E5
:100DE600FFE47B0AFAF9F8120AC890012C120B5A92
:100DF600900130E0C39405401F90012CE0FCA3E075
:100E0600FDA3E0FEA3E02401FFE43EFEE43DFDE495
:100E16003CFC90012C120B5AE589540F4420F589AD
:100E260043C9A090012CA3A3A3E0F404F58DD28EB0
:040E3600D299D29CDF
:010E3A002295
:08109F003098FDC298AF9922C0
:0810A7008F993099FDC29922D6
:1010600075A15575A1AAEF600543B101800353B185
:07107000FEE4F5A1F5FF22EB
:030040008FFF220D
:100EC700EF14601C14602B14603C2403704A7401F7
:100ED700C8EDC8088002C333D8FCF452925293225B
:100EE7007401C8EDC8088002C333D8FCFFF45292DE
:100EF70080237401C8EDC8088002C333D8FCFF42C1
:100F070092EFF45293227401C8EDC8088002C333EC
:090F1700D8FCFF4292EF42932244
:100F2000EF14601C14602B14603C2403704A74019D
:100F3000C8EDC8088002C333D8FCF45296529722F9
:100F40007401C8EDC8088002C333D8FCFFF4529680
:100F500080237401C8EDC8088002C333D8FCFF4267
:100F600096EFF45297227401C8EDC8088002C3338B
:090F7000D8FCFF4296EF429722E3
:0910960053C77F43C73CD2EE2290
:100CE50073757370656E640A0072657365740A00C6
:100CF5007374617274202E2E2E0A004445425547A6
:100D05003A205553425F4F55542F73657269616C94
:100D15003A20410A20001201100102000040861A03
:100D2500225700010102030109024300020100A04C
:100D3500320904000001020201000524001001052A
:100D45002401000004240202052406000107058190
:100D5500030800FF09040100020A0000000705025C
:100D65000240000007058202400000040309041444
:100D75000332003000310037002D0032002D0032E3
:100D85000035001403430048003500350034005F8A
:100D9500004300440043000A035F6CCF82816C521C
:010DA50060ED
:1010140047005500E10000000008012300012400FE
:0C102400012700012600016800012500E2
:10103100E4F5E253E27F43E229F5E353E2BF53D102
:08104100FB75D18043D10122AF
:1010770043E10443E10243E10143D81FD2EAD2AF7F
:011087002246
:100FF20075EF0075EE4075E50075E48075EBCC7514
:10100200D41275D21275ED0075EC0075EA4075DCEC
:021012000222B8
:100F7900900102120B6600000000900003120A495A
:100F8900900102F0900002120A49900103F09000CA
:100F990001120A49900104F0120A30900105F0C2C9
:100FA900EC900102E0F8A3E0F9A3E0FAA3E0FB7FEB
:100FB900B07E717D0B7C00120AC8EFF404F5C2D231
:010FC900EC3B
:010FCA002204
:0300430002005662
:10005600C0E0C0F0C083C082C0D075D000C000C070
:0D00660001C002C003C004C005C006C007F1
:1000730020D903020555E5D9543F70030205222414
:10008300FE603624E270030204A124FE601924F208
:100093006040240F600302055375D300E5D254FC7E
:1000A3004402F5D202055375D500E5D454FC44024D
:1000B300F5D47825760002055320DE030205537834
:1000C30026A6DB78687600E5D454F34408F5D40219
:1000D3000553AFDB900100E4F0A3EFF0900100E0E3
:1000E3007004A3E06408600302046A900007E0FE62
:1000F300900006E0FDEDFF90004AEEF0A3EFF090D4
:100103000100E4F0A3F0900001E090004CF09000B7
:1001130000E05460604990004CE024E07003020466
:100123007324FE700302047304600302046A9000E4
:100133005C7401F0A37400F0A37455F0900100E423
:10014300F0A37407F090004AE0FEA3E0FFC39440DD
:10015300EE940040077E007F4002027A02027A900A
:10016300004CE0B40B004003020468900175F828CA
:10017300287302043F0202FB0204680203790204AB
:10018300680202BF0201960204680202CB0202F077
:10019300020473900003E024FE602414603A2402F6
:1001A300600302024190005C74FFF0A3740DF0A39E
:1001B300741BF0900100E4F0A37412F002024A9061
:1001C300005C74FFF0A3740DF0A3742DF090010094
:1001D300E4F0A37443F0806F900002E0FF70199085
:1001E300005C74FFF0A3740DF0A37470F090010031
:1001F300E4F0A37404F0804FEFB4011990005C7431
:10020300FFF0A3740DF0A3749CF0900100E4F0A33D
:10021300740AF08032EF90005CB4020C74FFF0A318
:10022300740DF0A37488800A74FFF0A3740DF0A317
:100233007474F0900100E4F0A37414F08009900149
:1002430000E4F0A374FFF0900100E0FEA3E0FFD30D
:1002530090004BE09F90004AE09E4005EEF0A3EF34
:10026300F090004AE0FEA3E0FFC39440EE94004008
:10027300067E007F408000900100EEF0A3EFF09037
:100283000100E0FEA3E0FF78007C007D0190005CAC
:10029300E0FBA3E0FAA3E0F9120A0A900100E0FEF2
:1002A300A3E0FFC390004BE09FF090004AE09EF074
:1002B30090005DEE8FF0120A76020473900002E064
:1002C300FF90004AE4020462900048E0900000F0CE
:1002D300C390004BE0940190004AE0940050030265
:1002E3000473900100E4F0A304F00204739000028D
:1002F300E0900048F0020473900000E0541FFD708A
:1003030020900003E0FE900002E0FBEB64014E70DE
:100313000D900D349330E50302047302046A020462
:100323006AED6402704D900004E014603D1460298E
:1003330014601524826028146014147033E5D654B5
:10034300BC4402F5D602047353D673020473E5D496
:1003530054BC4402F5D402047353D473020473E50A
:10036300D254BC4402F5D202047353D27302047311
:1003730002046A02046A900000E0541F7043900074
:1003830003E0FE900002E0FDED64014E7030900D3D
:10039300349330E5267BFF7A0C79E5120640E5A21B
:1003A30020E7FB75A15575A1AA75A9C143870275FD
:1003B300A15575A1AA75A90002047302046A020477
:1003C3006A900000E0541F6402706F900003E0FE27
:1003D300900002E0FDED4E705F900005E0FE90009E
:1003E30004E0FDEDFFEE704EEF14604214602B1439
:1003F30060142482602E14601714703AE5D654BF3B
:100403004403F5D6806AE5D6547F440CF5D6806064
:10041300E5D454BF4403F5D48056E5D4547F440C4B
:10042300F5D4804CE5D254BF4403F5D28042E5D2E3
:10043300547F440CF5D2802F802D802B900000E454
:10044300F0A3F090004AE0FEA3E0FFC39402EE9411
:10045300009001004008E4F0A37402F08012EEF073
:10046300A3EFF0800B8000900100E4F0A374FFF091
:10047300900100E0FEA3E0FFF44E700C90004C747A
:10048300FFF075DCCF020553D3EF9440EE94005098
:10049300048FDD800375DD0075DCC0020553900019
:1004A3004CE024FB606214706E90004AE0FEA3E00F
:1004B300FFC39440EE940040067E007F408000908E
:1004C3000100EEF0A3EFF0900100E0FEA3E0FF785F
:1004D300007C007D0190005CE0FBA3E0FAA3E0F95F
:1004E300120A0A900100E0FEA3E0FFC390004BE074
:1004F3009FF090004AE09EF090005DEE8FF0120AAC
:10050300768FDD63DC40804890004AA3E0FFE5E39B
:1005130054804FF5E3800375DD0075DC0280319074
:10052300004CE06420702330DE26AFDBFE78557C80
:10053300007D017B017A007900120A0A7B017A00AF
:100543007955120F7975DD00800675DD0043DC02F5
:10055300C2D930D8307BFF7A0C79EE12064075DCB5
:100563000275D21275D41275E300C2DAC2D9C2D8A9
:1005730078237600087600782776001876009000B6
:1005830048E4F018F630DA2CC2DAE5DA30E2287BF8
:10059300FF7A0C79E5120640E5A220E7FB75A15529
:1005A30075A1AA75A9C143870275A15575A1AA753D
:0705B300A900800375D8FFC9
:1005BA00D007D006D005D004D003D002D001D00095
:0B05CA00D0D0D082D083D0F0D0E0323F
:03005300020003A5
:10000300C0E0C0D075D000C00030C0187823E60629
:100013002428F8A6C17827067823E6C39440400233
:0B0023007600C2C0D000D0D0D0E03288
:100BEF00E490012BF012002E7F057E0012104912A7
:100BFF000DA61200467D037F01120F20C2B37BFFAB
:100C0F007A0C79F5120640121031120FF21210778A
:100C1F00E4F5DDF5D3F5D5900048E060FA7826E6E7
:100C2F00602D900080E0B4410BB2B37BFF7A0D7959
:100C3F00001206407868E6062480F582E43400F559
:100C4F0083E0FF1210B7782616E6700353D4F378BB
:100C5F0027E6600690012BE004F07825E670B8785F
:100C6F0027E690012AF0E0FFD3940040AAEFD39437
:100C7F00275006A3E09464409EE490012BF090016E
:100C8F002AE0FF7824E62FFFE433FED3EF9440EE03
:100C9F00648094804004744096F090012AE0FFC372
:100CAF007827E69FF67E007824E62428F9E4FAFBFD
:100CBF0078C07C007D01120A0A90012AE0FF782497
:100CCF0026F6E6C394404002E4F68FD553D4FC7861
:060CDF00257601020C263F
:0C004600C2C7D2C5D2C475C2F3C2C12229
:0810AF0030C0FDC2C0AFC12238
:0810B7008FC130C1FDC2C1224E
:03000000020E3BB2
:0C0E3B00787FE4F6D8FD758168020E8215
:10093A00E709F608DFFA8046E709F208DFFA803E9F
:10094A0088828C83E709F0A3DFFA8032E309F6088C
:10095A00DFFA8078E309F208DFFA807088828C83F4
:10096A00E309F0A3DFFA806489828A83E0A3F608A8
:10097A00DFFA805889828A83E0A3F208DFFA804C82
:10098A0080D280FA80C680D4806980F28033801059
:10099A0080A680EA809A80A880DA80E280CA8033C2
:1009AA0089828A83ECFAE493A3C8C582C8CCC5833A
:1009BA00CCF0A3C8C582C8CCC583CCDFE9DEE7800A
:1009CA000D89828A83E493A3F608DFF9ECFAA9F089
:1009DA00EDFB2289828A83ECFAE0A3C8C582C8CCDF
:1009EA00C583CCF0A3C8C582C8CCC583CCDFEADEF8
:1009FA00E880DB89828A83E493A3F208DFF980CC5A
:100A0A0088F0EF60010E4E60C388F0ED2402B40452
:100A1A000050B9F582EB2402B4040050AF232345F9
:060A2A00822390098A738B
:100A3000BB010689828A83E0225002E722BBFE02C4
:090A4000E32289828A83E49322F7
:100A4900BB010CE58229F582E5833AF583E0225062
:100A590006E92582F8E622BBFE06E92582F8E222AC
:0D0A6900E58229F582E5833AF583E49322C6
:100A7600C5F0F8A3E028F0C5F0F8E582158270020B
:060A86001583E038F022A8
:100A8C0075F008758200EF2FFFEE33FECD33CDCC21
:100A9C0033CCC58233C5829BED9AEC99E5829840A4
:100AAC000CF582EE9BFEED9AFDEC99FC0FD5F0D681
:100ABC00E4CEFBE4CDFAE4CCF9A88222B800C1B9AB
:100ACC000059BA002DEC8BF084CFCECDFCE5F0CBE9
:100ADC00F97818EF2FFFEE33FEED33FDEC33FCEB22
:100AEC0033FB10D703994004EB99FB0FD8E5E4F9DD
:100AFC00FA227818EF2FFFEE33FEED33FDEC33FCCA
:100B0C00C933C910D7059BE99A4007EC9BFCE99ABD
:100B1C00F90FD8E0E4C9FAE4CCFB2275F010EF2F02
:100B2C00FFEE33FEED33FDCC33CCC833C810D70702
:100B3C009BEC9AE899400AED9BFDEC9AFCE899F83D
:0E0B4C000FD5F0DAE4CDFBE4CCFAE4C8F922D0
:0C0B5A00ECF0A3EDF0A3EEF0A3EFF0220E
:100B6600A8828583F0D083D082120B7D120B7D1272
:100B76000B7D120B7DE473E493A3C583C5F0C58397
:100B8600C8C582C8F0A3C583C5F0C583C8C582C8D9
:010B9600223C
:1005D500E50D242FF582E43401F583E0050D229025
:1005E500012C30100390012FE475F001120BA902C4
:1005F5000A302009E97F2ED2098018EF540F249084
:10060500D43440D4FF300D0BEF24BFB41A0050038F
:100615002461FFE50E6002150E0511E51170020556
:100625001030100E90012CE475F001120BA9EF02A9
:100635000B97020FCB7403D2108003E4C210F50DA3
:1006450090012C120BC0E4F50EF510F511E50E60C6
:10065500077F2012061880F5750FFFC20AC209C26E
:100665000BC20CC20EC20FC2111205E4FF700D3091
:1006750010057F00120629AF11AE1022B4255FC206
:10068500D5C20D1205E4FF24D0B40A00501A75F046
:100695000A780E30D50508B6FF0106C6A426F62051
:1006A500D5047002D20C80D924CFB41A00EF5004BF
:1006B500C2E5D20D02082AD20A80C6D20980C0D26C
:1006C5000B80BCD2D580BAD20E80B47F201206181A
:1006D500200B077401B50E0040F11205D5FF120677
:1006E50018020652D211D20F80951205D5FB1205BC
:1006F500D5FA1205D5F94A4B700679FB7A087BFFC6
:10070500200B2EE50E602A7E008E82758300120A6C
:100715004960060EEE650F70F0C2D5EBC0E0EAC089
:10072500E0E9C0E0EE120871D0E0F9D0E0FAD0E0DF
:10073500FB120A30FF60AAEBC0E0EAC0E0E9C0E0C6
:10074500120618D0E02401F9D0E03400FAD0E0FB1D
:10075500E50F0460DCD50FD980877BFF7A08796DBA
:10076500D20B809C791080027908C20FC2118008D3
:10077500D2D5790A8004790AC2D5E50F047002F54D
:100785000FE4FAFDFEFF1205D5FC7B08200A1312C3
:1007950005D5FD7B1030090A1205D5FE1205D5FFDA
:1007A5007B20EC3382D592D55013C3E43009069FE4
:1007B500FFE49EFEE4200A039DFDE49CFCE4CBF8E7
:1007C500C20AEC700CCFCECDCCE824F8F870F380DB
:1007D50017C3EF33FFEE33FEED33FDEC33FCEB33A4
:1007E500FB994002FB0FD8E9EB300A05F8D0E0C4CD
:1007F50048B20AC0E00AEC4D4E4F78207B0070C22B
:10080500EAB50F0040BCC0E0120873D0F0D0E0207C
:100815000A04C4C0E0C4B20AC0F0120601D0F0D583
:10082500F0EB020652120BC906EF5307695806C0D2
:100835004C06BC42076D4F07754407754906D543FD
:08084500077B55075F46075FC2
:10084D0045075F47091B5006C42D06C82E06EB2B26
:10085D0006CC2306E92009042A068448000006E395
:10086D003F3F3F00790AA2D5200C14300E09B91074
:10087D00020404B9080104A2D5200F02500104207E
:10088D000B68920BB50E005034C0E07F20300C1970
:10089D007F30A20B720F720E500F1208CAC20BC21C
:1008AD000FC20EC2117F30800F300E03E9C0E0126F
:1008BD000618300E03D0E0F9D0E0B50ECC300E178F
:1008CD007F30B9100C1206187F58300D077F7880D5
:1008DD0003B90803120618300B057F2D0206187F89
:1008ED00202011F87F2B200FF322920B80CF286E42
:1008FD00756C6C2900D20A1205D5300AF8C20A7837
:10090D000E30D50108F60206842D504349581205C4
:10091D00D52403B405004001E4900916931206098D
:0D092D00743A120609D20C750E0402076917
:100E4700020BEFE493A3F8E493A34003F68001F2C7
:100E570008DFF48029E493A3F85407240CC8C333AC
:100E6700C4540F4420C8834004F456800146F6DF7B
:100E7700E4800B0102040810204080901014E47EE7
:100E8700019360BCA3FF543F30E509541FFEE49370
:100E9700A360010ECF54C025E060A840B8E493A337
:100EA700FAE493A3F8E493A3C8C582C8CAC583CA62
:100EB700F0A3C8C582C8CAC583CADFE9DEE780BE1A
:0110300000BF
:100B9700BB010689828A83F0225002F722BBFE013D
:020BA700F32237
:100BA900F8E0FBA3A3E0F925F0F0E58215827002D5
:070BB9001583E0FA38F02279
:090BC000EBF0A3EAF0A3E9F02236
:100BC900D083D082F8E4937012740193700DA3A3BB
:100BD90093F8740193F5828883E4737402936860CF
:060BE900EFA3A3A380DFCF
:100FCB00EFB40A07740D120FD6740A309811A89952
:100FDB00B8130CC2983098FDA899C298B811F63086
:070FEB0099FDC299F599225E
:00000001FF
