:1006A50075A15575A1AAE5B954F84404F5B9E4F561
:0206B500A12280
:0E06B700EF4E600905A1EF1F70F61E80F322C2
:10066200CDEFCDCCEECCED4C600E7FE87E031206D2
:09067200B7ED1D70F11C80EE22B1
:04005C0043C6102265
:10051E00C29FD29EC29DC2CDC2CC438780E47513CA
:10052E000D751203F511F5107B0AFAF9F8AF13AE3B
:10053E0012AD11AC101203FECFEBCF8F14AF13AE72
:10054E0012AD11AC10E47B0AFAF9F81203FE8F1308
:10055E008E128D118C10E514C394054011EF2401F9
:10056E00F513E43EF512E43DF511E43CF510E58992
:10057E00540F4420F58943C9A0E513F404F58DD238
:05058E008ED299D29C01
:010593002245
:0806E4003098FDC298AF992285
:0806EC008F993099FDC299229B
:0A06D100C2C7D2C5D2C475C2B2225E
:0806F40030C0FDC2C0AFC122FD
:0806FC008FC130C1FDD2C12203
:10067B0075A15575A1AAEF600543B101800353B174
:07068B00FEE4F5A1F5FF22DA
:030060008FFF22ED
:100692004750494F5F5354415455533A2025303205
:0306A200780A00D3
:10000300EF14601C14602B14603C2403704A7401C9
:10001300C8EDC8088002C333D8FCF452925293222D
:100023007401C8EDC8088002C333D8FCFFF45292B0
:1000330080237401C8EDC8088002C333D8FCFF4293
:1000430092EFF45293227401C8EDC8088002C333BF
:09005300D8FCFF4292EF42932217
:10059400EF14601C14602B14603C2403704A740133
:1005A400C8EDC8088002C333D8FCF452965297228F
:1005B4007401C8EDC8088002C333D8FCFFF4529616
:1005C40080237401C8EDC8088002C333D8FCFF42FD
:1005D40096EFF45297227401C8EDC8088002C33321
:0905E400D8FCFF4296EF42972279
:0906DB0053C77F43C73CD2EE2255
:030063000205EDA6
:1005ED00C0E0C0F0C083C082C0D075D0087BFF7A58
:1005FD00067992E5C65440752500F5261200C8D03F
:0A060D00D0D082D083D0F0D0E032CC
:10063E001206A57F057E001206627D047F01120060
:10064E00031206D17FF47E01120662B2947F52121B
:04065E0006FC80F026
:030000000206C530
:0C06C500787FE4F6D8FD75813502063E12
:1003C20075F008758200EF2FFFEE33FECD33CDCCF2
:1003D20033CCC58233C5829BED9AEC99E582984075
:1003E2000CF582EE9BFEED9AFDEC99FC0FD5F0D652
:1003F200E4CEFBE4CDFAE4CCF9A88222B800C1B97C
:100402000059BA002DEC8BF084CFCECDFCE5F0CBB9
:10041200F97818EF2FFFEE33FEED33FDEC33FCEBF2
:1004220033FB10D703994004EB99FB0FD8E5E4F9AD
:10043200FA227818EF2FFFEE33FEED33FDEC33FC9A
:10044200C933C910D7059BE99A4007EC9BFCE99A8E
:10045200F90FD8E0E4C9FAE4CCFB2275F010EF2FD3
:10046200FFEE33FEED33FDCC33CCC833C810D707D3
:100472009BEC9AE899400AED9BFDEC9AFCE899F80E
:0E0482000FD5F0DAE4CDFBE4CCFAE4C8F922A1
:10006600E5312425F8E60531227822300702782585
:10007600E475F0011204E80204902000EB7F2ED212
:10008600008018EF540F2490D43440D4FF30040B72
:10009600EF24BFB41A0050032461FFE53260021555
:1000A600320535E5357002053430070D7822E475E2
:1000B600F0011204E8EF0204D60206177403D20711
:1000C6008003E4C207F5318B228A238924E4F532C2
:1000D600F534F535E53260077F201200A180F5750D
:1000E60033FFC201C200C202C203C205C206C20871
:1000F60012006FFF700D3007057F001200B2AF359A
:10010600AE3422B4255FC2D5C20412006FFF24D0DC
:10011600B40A00501A75F00A783230D50508B6FFD1
:100126000106C6A426F620D5047002D20380D9247F
:10013600CFB41A00EF5004C2E5D2040202B2D201D3
:1001460080C6D20080C0D20280BCD2D580BAD20589
:1001560080B47F201200A12002077401B53200404E
:10016600F1120066FF1200A10200DAD208D2068060
:1001760095120066FB120066FA120066F94A4B7089
:100186000679837A037BFF20022EE532602A7E0001
:100196008E827583001204A960060EEE653370F038
:1001A600C2D5EBC0E0EAC0E0E9C0E0EE1202F9D049
:1001B600E0F9D0E0FAD0E0FB120490FF60AAEBC0B1
:1001C600E0EAC0E0E9C0E01200A1D0E02401F9D0E5
:1001D600E03400FAD0E0FBE5330460DCD533D980A7
:1001E600877BFF7A0279F5D202809C7910800279AA
:1001F60008C206C2088008D2D5790A8004790AC2E4
:10020600D5E533047002F533E4FAFDFEFF1200660D
:10021600FC7B08200113120066FD7B1030000A12D9
:100226000066FE120066FF7B20EC3382D592D55025
:1002360013C3E43000069FFFE49EFEE42001039D05
:10024600FDE49CFCE4CBF8C201EC700CCFCECDCC27
:10025600E824F8F870F38017C3EF33FFEE33FEEDB2
:1002660033FDEC33FCEB33FB994002FB0FD8E9EB93
:10027600300105F8D0E0C448B201C0E00AEC4D4EAA
:100286004F78207B0070C2EAB5330040BCC0E01254
:1002960002FBD0F0D0E0200104C4C0E0C4B201C02B
:1002A600F012008AD0F0D5F0EB0200DA1204F80161
:1002B600775301F15801484C01444201F54F01FDC5
:0F02C6004401FD49015D4302035501E74601E78D
:1002D5004501E74703A350014C2D01502E01732B17
:1002E500015423017120038C2A010C480000016B85
:1002F5003F3F3F00790AA2D5200314300509B91004
:10030500020404B9080104A2D52006025001042004
:1003150002689202B532005034C0E07F20300319E4
:100325007F30A20272067205500F120352C202C23A
:1003350006C205C2087F30800F300503E9C0E01210
:1003450000A1300503D0E0F9D0E0B532CC30051777
:100355007F30B9100C1200A17F583004077F7880D8
:1003650003B908031200A13002057F2D0200A17F09
:10037500202008F87F2B2006F322920280CF286EDA
:10038500756C6C2900D2011200663001F8C2017843
:100395003230D50108F602010C2D504349581200A0
:1003A500662403B405004001E490039E9312009275
:0D03B500743A120092D2037532040201F175
:10049000BB010689828A83E0225002E722BBFE026A
:0904A000E32289828A83E493229D
:1004A900BB010CE58229F582E5833AF583E0225008
:1004B90006E92582F8E622BBFE06E92582F8E22252
:0D04C900E58229F582E5833AF583E493226C
:1004D600BB010689828A83F0225002F722BBFE0105
:0204E600F322FF
:1004E800FAE6FB0808E6F925F0F618E6CA3AF62215
:1004F800D083D082F8E4937012740193700DA3A393
:1005080093F8740193F5828883E4737402936860A6
:06051800EFA3A3A380DFA6
:10061700EFB40A07740D120622740A309811A899CC
:10062700B8130CC2983098FDA899C298B811F63043
:0706370099FDC299F599221B
:00000001FF
