:1007F40050355F494E20253032580A0073746172B7
:0708040074202E2E2E0A00C5
:0A08240075A15575A1AA75A1FF2268
:0E005300EF4E600905A1EF1F70F61E80F3222C
:0807D500C296C2977FF47E0179
:1007DD00AD07AC06ED4C600E7FE87E03120053EDC5
:0707ED001D70F11C80EE22DB
:0D080B0043C60143C40843C50C43CE102270
:1006B500C29FD29EC29DC2CDC2CC438780900028E6
:1006C5001204A500000082E47B0AFAF9F8900028DC
:1006D500E0FCA3E0FDA3E0FEA3E0FF120407900009
:1006E5002CEBF0900028E0FCA3E0FDA3E0FEA3E0E6
:1006F500FFE47B0AFAF9F81204079000281204991E
:1007050090002CE0C3940574809480401F900028CD
:10071500E0FCA3E0FDA3E0FEA3E02401FFE43EFE30
:10072500E43DFDE43CFC900028120499E589540F52
:100735004420F58943C9A0900028A3A3A3E0F404AD
:08074500F58DD28ED299D29CF1
:01074D002289
:080838003098FDC298AF99222F
:080840008F993099FDD2992235
:10074E00EFC394047480948040037F0022CEEDCEDC
:10075E00EE7011C8EFC87410088002C333D8FCF4D1
:10076E0052C6800EC8EFC87410088002C333D8FC7E
:05077E0042C67F0122CC
:03057400C9EFC903
:10057700E9C394047480948040037F0022CFEDCFB9
:10058700EFB40700400302068D900597F8282873FB
:100597000205AC0205C90205E702060802062B029E
:1005A700064E02066DC8E9C87401088002C333D835
:1005B700FCF452C6C8EBC87401088002C333D8FCE8
:1005C7008059C8E9C87401088002C333D8FCF452C3
:1005D700C6C8EBC87401088002C333D8FC0206689A
:1005E700C8E9C87401088002C333D8FCF452C6C8EE
:1005F700EBC87401088002C333D8FCF44EFE020630
:100607008DC8E9C87401088002C333D8FC42C6C844
:10061700EBC87401088002C333D8FCF4FF5EFEEC1C
:100627005FFC8062C8E9C87401088002C333D8FC44
:1006370042C6C8EBC87401088002C333D8FCFF4E1A
:10064700FEEFF45CFC803FC8E9C87401088002C370
:1006570033D8FC42C6C8EBC87401088002C333D83C
:10066700FCFFF45E801CC8E9C87401088002C3332C
:10067700D8FC42C6C8EBC87401088002C333D8FC53
:10068700FF4EFEEC4FFCE970048EC48CC5E9640193
:1006970070048EBA8CBBE9640270048EBC8CBDCF2B
:0D06A700E9CFEF640370048EBE8CBF7F01AD
:0106B4002223
:0A082E0075C2FF75C3FF43C7042223
:0708480053CF7F43CF402294
:030063000207830E
:10078300C0E0C0F0C083C082C0D075D0087BFF7AC0
:100793000779F4AFC790002BE4F0A3EFF01200D178
:0B07A300D0D0D082D083D0F0D0E03264
:100003007F057E001207DD75BAFF1206B57BFF7A06
:100013000879001200D143A210439130D2C01208D4
:1000230048D2EED2AF7D027F011205741207D9D2F6
:1000330094C2951207D5C294D2951207D5C294C221
:1000430095D2961207D7C294C295C296D29780D5FD
:03000000020818DB
:0C081800787FE4F6D8FD75812202000311
:1003CB0075F008758200EF2FFFEE33FECD33CDCCE9
:1003DB0033CCC58233C5829BED9AEC99E58298406C
:1003EB000CF582EE9BFEED9AFDEC99FC0FD5F0D649
:1003FB00E4CEFBE4CDFAE4CCF9A88222B800C1B973
:10040B000059BA002DEC8BF084CFCECDFCE5F0CBB0
:10041B00F97818EF2FFFEE33FEED33FDEC33FCEBE9
:10042B0033FB10D703994004EB99FB0FD8E5E4F9A4
:10043B00FA227818EF2FFFEE33FEED33FDEC33FC91
:10044B00C933C910D7059BE99A4007EC9BFCE99A85
:10045B00F90FD8E0E4C9FAE4CCFB2275F010EF2FCA
:10046B00FFEE33FEED33FDCC33CCC833C810D707CA
:10047B009BEC9AE899400AED9BFDEC9AFCE899F805
:0E048B000FD5F0DAE4CDFBE4CCFAE4C8F92298
:0C049900ECF0A3EDF0A3EEF0A3EFF022D6
:1004A500A8828583F0D083D0821204BC1204BC12CA
:1004B50004BC1204BCE473E493A3C583C5F0C583EF
:1004C500C8C582C8F0A3C583C5F0C583C8C582C8A1
:0104D5002204
:10006600E515242BF582E43400F583E0051522908E
:10007600002830100390002BE475F00112052E02C3
:1000860004D62009E97F2ED2098018EF540F249058
:10009600D43440D4FF300D0BEF24BFB41A00500304
:1000A6002461FFE516600215160519E519700205AB
:1000B6001830100E900028E475F00112052EEF029C
:1000C600051C0207AE7403D2108003E4C210F515B6
:1000D600900028120545E4F516F518F519E51660A1
:1000E600077F201200A980F57517FFC20AC209C250
:1000F6000BC20CC20EC20FC211120075FF700D307A
:1001060010057F001200BAAF19AE1822B4255FC2DF
:10011600D5C20D120075FF24D0B40A00501A75F02E
:100126000A781630D50508B6FF0106C6A426F620BD
:10013600D5047002D20C80D924CFB41A00EF500433
:10014600C2E5D20D0202BBD20A80C6D20980C0D255
:100156000B80BCD2D580BAD20E80B47F201200A903
:10016600200B077401B5160040F1120066FF12005D
:10017600A90200E3D211D20F8095120066FB12008D
:1001860066FA120066F94A4B7006798C7A037BFF91
:10019600200B2EE516602A7E008E827583001204DF
:1001A600EF60060EEE651770F0C2D5EBC0E0EAC050
:1001B600E0E9C0E0EE120302D0E0F9D0E0FAD0E0C8
:1001C600FB1204D6FF60AAEBC0E0EAC0E0E9C0E09B
:1001D6001200A9D0E02401F9D0E03400FAD0E0FB07
:1001E600E5170460DCD517D980877BFF7A0279FE94
:1001F600D20B809C791080027908C20FC211800848
:10020600D2D5790A8004790AC2D5E517047002F5B9
:1002160017E4FAFDFEFF120066FC7B08200A1312A3
:100226000066FD7B1030090A120066FE120066FFAA
:100236007B20EC3382D592D55013C3E43009069F58
:10024600FFE49EFEE4200A039DFDE49CFCE4CBF85B
:10025600C20AEC700CCFCECDCCE824F8F870F3804F
:1002660017C3EF33FFEE33FEED33FDEC33FCEB3318
:10027600FB994002FB0FD8E9EB300A05F8D0E0C441
:1002860048B20AC0E00AEC4D4E4F78207B0070C29F
:10029600EAB5170040BCC0E0120304D0F0D0E0205D
:1002A6000A04C4C0E0C4B20AC0F0120092D0F0D56D
:1002B600F0EB0200E312054E01805301FA5801519A
:1002C6004C014D4201FE4F020644020649016643B7
:0802D600020C5501F04601F095
:1002DE004501F04703AC5001552D01592E017C2BE1
:1002EE00015D23017A2003952A011548000001744F
:1002FE003F3F3F00790AA2D5200C14300E09B910E9
:10030E00020404B9080104A2D5200F0250010420F2
:10031E000B68920BB516005034C0E07F20300C19DC
:10032E007F30A20B720F720E500F12035BC20BC204
:10033E000FC20EC2117F30800F300E03E9C0E012E3
:10034E0000A9300E03D0E0F9D0E0B516CC300E1770
:10035E007F30B9100C1200A97F58300D077F7880BE
:10036E0003B908031200A9300B057F2D0200A97FE7
:10037E00202011F87F2B200FF322920B80CF286EB6
:10038E00756C6C2900D20A120066300AF8C20A781F
:10039E001630D50108F60201152D504349581200AA
:1003AE00662403B405004001E49003A79312009A5B
:0D03BE00743A12009AD20C7516040201FA6E
:1004D600BB010689828A83E0225002E722BBFE0224
:0904E600E32289828A83E4932257
:1004EF00BB010CE58229F582E5833AF583E02250C2
:1004FF0006E92582F8E622BBFE06E92582F8E2220C
:0D050F00E58229F582E5833AF583E4932225
:10051C00BB010689828A83F0225002F722BBFE01BE
:02052C00F322B8
:10052E00F8E0FBA3A3E0F925F0F0E5821582700256
:07053E001583E0FA38F022FA
:09054500EBF0A3EAF0A3E9F022B7
:10054E00D083D082F8E4937012740193700DA3A33C
:10055E0093F8740193F5828883E473740293686050
:06056E00EFA3A3A380DF50
:1007AE00EFB40A07740D1207B9740A309811A8999C
:1007BE00B8130CC2983098FDA899C298B811F630AB
:0707CE0099FDC299F5992283
:00000001FF
