:1006D70075A15575A1AAE5B954F84404F5B9E4F52F
:0206E700A1224E
:0E06E900EF4E600905A1EF1F70F61E80F32290
:10067C00CDEFCDCCEECCED4C600E7FE87E031206B8
:09068C00E9ED1D70F11C80EE2265
:04005C0043C6102265
:10051E00C29FD29EC29DC2CDC2CC438780E4753AA3
:10052E000D753903F538F5377B0AFAF9F8AF3AAE9F
:10053E0039AD38AC371203FECFEBCF8F3BAF3AAEAF
:10054E0039AD38AC37E47B0AFAF9F81203FE8F3A6C
:10055E008E398D388C37E53BC394054011EF24015D
:10056E00F53AE43EF539E43DF538E43CF537E589F6
:10057E00540F4420F58943C9A0E53AF404F58DD211
:05058E008ED299D29C01
:010593002245
:080716003098FDC298AF992252
:08071E008F993099FDC2992268
:0A070300C2C7D2C5D2C475C2B2222B
:0807260030C0FDC2C0AFC122CA
:08072E008FC130C1FDD2C122D0
:1006AD0075A15575A1AAEF600543B101800353B142
:0706BD00FEE4F5A1F5FF22A8
:030060008FFF22ED
:1006C4004750494F5F5354415455533A20253032D3
:0306D400780A00A1
:10000300EF14601C14602B14603C2403704A7401C9
:10001300C8EDC8088002C333D8FCF452925293222D
:100023007401C8EDC8088002C333D8FCFFF45292B0
:1000330080237401C8EDC8088002C333D8FCFF4293
:1000430092EFF45293227401C8EDC8088002C333BF
:09005300D8FCFF4292EF42932217
:10059400EF14601C14602B14603C2403704A740133
:1005A400C8EDC8088002C333D8FCF452965297228F
:1005B4007401C8EDC8088002C333D8FCFFF4529616
:1005C40080237401C8EDC8088002C333D8FCFF42FD
:1005D40096EFF45297227401C8EDC8088002C33321
:0905E400D8FCFF4296EF42972279
:09070D0053C77F43C73CD2EE2222
:0300630002062B67
:10062B00C0E0C0F0C083C082C0D075D0087BFF7A19
:10063B000679C4E5C65440753A00F53B1200C8D0A4
:0A064B00D0D082D083D0F0D0E0328E
:10069500746869732069732061207072696E7420B3
:0806A500746573742E2E2E0003
:1005ED001206D77F057E0012067C12051E12070328
:1005FD007D047F011200037D037F011205947FF4BA
:10060D007E0112067CB294B2B37F5212072E7F5533
:0E061D0012071E7BFF7A0679951200C880E056
:030000000206F7FE
:0C06F700787FE4F6D8FD75814A0205ED1D
:1003C20075F008758200EF2FFFEE33FECD33CDCCF2
:1003D20033CCC58233C5829BED9AEC99E582984075
:1003E2000CF582EE9BFEED9AFDEC99FC0FD5F0D652
:1003F200E4CEFBE4CDFAE4CCF9A88222B800C1B97C
:100402000059BA002DEC8BF084CFCECDFCE5F0CBB9
:10041200F97818EF2FFFEE33FEED33FDEC33FCEBF2
:1004220033FB10D703994004EB99FB0FD8E5E4F9AD
:10043200FA227818EF2FFFEE33FEED33FDEC33FC9A
:10044200C933C910D7059BE99A4007EC9BFCE99A8E
:10045200F90FD8E0E4C9FAE4CCFB2275F010EF2FD3
:10046200FFEE33FEED33FDCC33CCC833C810D707D3
:100472009BEC9AE899400AED9BFDEC9AFCE899F80E
:0E0482000FD5F0DAE4CDFBE4CCFAE4C8F922A1
:10006600E546243AF8E60546227837301002783A13
:10007600E475F0011204E80204902009EB7F2ED209
:10008600098018EF540F2490D43440D4FF300D0B60
:10009600EF24BFB41A0050032461FFE54760021540
:1000A60047054AE54A7002054930100D7837E47570
:1000B600F0011204E8EF0204D60206557403D210CA
:1000C6008003E4C210F5468B378A388939E4F54750
:1000D600F549F54AE54760077F201200A180F575CE
:1000E60048FFC20AC209C20BC20CC20EC20FC2111D
:1000F60012006FFF700D3010057F001200B2AF4A7C
:10010600AE4922B4255FC2D5C20D12006FFF24D0BE
:10011600B40A00501A75F00A784730D50508B6FFBC
:100126000106C6A426F620D5047002D20C80D92476
:10013600CFB41A00EF5004C2E5D20D0202B2D20AC1
:1001460080C6D20980C0D20B80BCD2D580BAD20E6E
:1001560080B47F201200A1200B077401B547004030
:10016600F1120066FF1200A10200DAD211D20F804E
:1001760095120066FB120066FA120066F94A4B7089
:100186000679837A037BFF200B2EE547602A7E00E3
:100196008E827583001204A960060EEE654870F023
:1001A600C2D5EBC0E0EAC0E0E9C0E0EE1202F9D049
:1001B600E0F9D0E0FAD0E0FB120490FF60AAEBC0B1
:1001C600E0EAC0E0E9C0E01200A1D0E02401F9D0E5
:1001D600E03400FAD0E0FBE5480460DCD548D9807D
:1001E600877BFF7A0279F5D20B809C7910800279A1
:1001F60008C20FC2118008D2D5790A8004790AC2D2
:10020600D5E548047002F548E4FAFDFEFF120066E3
:10021600FC7B08200A13120066FD7B1030090A12C7
:100226000066FE120066FF7B20EC3382D592D55025
:1002360013C3E43009069FFFE49EFEE4200A039DF3
:10024600FDE49CFCE4CBF8C20AEC700CCFCECDCC1E
:10025600E824F8F870F38017C3EF33FFEE33FEEDB2
:1002660033FDEC33FCEB33FB994002FB0FD8E9EB93
:10027600300A05F8D0E0C448B20AC0E00AEC4D4E98
:100286004F78207B0070C2EAB5480040BCC0E0123F
:1002960002FBD0F0D0E0200A04C4C0E0C4B20AC019
:1002A600F012008AD0F0D5F0EB0200DA1204F80161
:1002B600775301F15801484C01444201F54F01FDC5
:0F02C6004401FD49015D4302035501E74601E78D
:1002D5004501E74703A350014C2D01502E01732B17
:1002E500015423017120038C2A010C480000016B85
:1002F5003F3F3F00790AA2D5200C14300E09B910F2
:10030500020404B9080104A2D5200F0250010420FB
:100315000B68920BB547005034C0E07F20300C19B4
:100325007F30A20B720F720E500F120352C20BC216
:100335000FC20EC2117F30800F300E03E9C0E012EC
:1003450000A1300E03D0E0F9D0E0B547CC300E1750
:100355007F30B9100C1200A17F58300D077F7880CF
:1003650003B908031200A1300B057F2D0200A17F00
:10037500202011F87F2B200FF322920B80CF286EBF
:10038500756C6C2900D20A120066300AF8C20A7828
:100395004730D50108F602010C2D5043495812008B
:1003A500662403B405004001E490039E9312009275
:0D03B500743A120092D20C7547040201F157
:10049000BB010689828A83E0225002E722BBFE026A
:0904A000E32289828A83E493229D
:1004A900BB010CE58229F582E5833AF583E0225008
:1004B90006E92582F8E622BBFE06E92582F8E22252
:0D04C900E58229F582E5833AF583E493226C
:1004D600BB010689828A83F0225002F722BBFE0105
:0204E600F322FF
:1004E800FAE6FB0808E6F925F0F618E6CA3AF62215
:1004F800D083D082F8E4937012740193700DA3A393
:1005080093F8740193F5828883E4737402936860A6
:06051800EFA3A3A380DFA6
:10065500EFB40A07740D120660740A309811A89950
:10066500B8130CC2983098FDA899C298B811F63005
:0706750099FDC299F59922DD
:00000001FF
