:1000310075A15575A1AAE5B954F84404F5B9E4F5DB
:02004100A122FA
:0E10A000EF4E600905A1EF1F70F61E80F322CF
:10104E00AD07AC06ED4C600E7FE87E031210A0EDEE
:07105E001D70F11C80EE2261
:04005F0043C6102262
:100D8000C29FD29EC29DC2CDC2CC438780900154E7
:100D9000120B7600000082E47B0AFAF9F890015405
:100DA000E0FCA3E0FDA3E0FEA3E0FF120AD890015F
:100DB00058EBF0900154E0FCA3E0FDA3E0FEA3E0BB
:100DC000FFE47B0AFAF9F8120AD8900154120B6A70
:100DD000900158E0C39405401F900154E0FCA3E04B
:100DE000FDA3E0FEA3E02401FFE43EFEE43DFDE4BC
:100DF0003CFC900154120B6AE589540F4420F5899C
:100E000043C9A0900154A3A3A3E0F404F58DD28EAE
:040E1000D299D29C05
:010E140022BB
:0810AE003098FDC298AF9922B1
:0810B6008F993099FDC29922C7
:1010650075A15575A1AAEF600543B101800353B180
:07107500FEE4F5A1F5FF22E6
:0310CE008FFF226F
:10107C004750494F5F5354415455533A2025303211
:03108C00780A00DF
:100EA100EF14601C14602B14603C2403704A74011D
:100EB100C8EDC8088002C333D8FCF4529252932281
:100EC1007401C8EDC8088002C333D8FCFFF4529204
:100ED10080237401C8EDC8088002C333D8FCFF42E7
:100EE10092EFF45293227401C8EDC8088002C33313
:090EF100D8FCFF4292EF4293226B
:100EFA00EF14601C14602B14603C2403704A7401C4
:100F0A00C8EDC8088002C333D8FCF452965297221F
:100F1A007401C8EDC8088002C333D8FCFFF45296A6
:100F2A0080237401C8EDC8088002C333D8FCFF428D
:100F3A0096EFF45297227401C8EDC8088002C333B1
:090F4A00D8FCFF4296EF42972209
:0900560053C77F43C73CD2EE22E0
:0300630002000395
:10000300C0E0C0F0C083C082C0D075D0087BFF7A47
:1000130010797CE5C65440FF900157E4F0A3EFF05C
:0E002300120650D0D0D082D083D0F0D0E03280
:0310D100020BFF10
:100CDA0073757370656E640A0072657365740A00D1
:100CEA007374617274202E2E2E0A001201100102F2
:100CFA00000040861A22570001010203010902433B
:100D0A0000020100A03209040000010202010005EC
:100D1A00240010010524010000042402020524060F
:100D2A000001070581030800FF09040100020A0007
:100D3A000000070502024000000705820240000089
:100D4A0004030904140332003000310037002D0077
:100D5A0032002D00320035001403430048003500EC
:100D6A00350034005F004300440043000A035F6C0F
:060D7A00CF82816C526083
:1010190047005500E10000000008012400012500F7
:0C102900012800012700016900012600D9
:10103600E4F5E253E27F43E229F5E353E2BF53D1FD
:08104600FB75D18043D10122AA
:10108F0043E10443E10243E10143D81FD2EAD2AF67
:01109F00222E
:100FF70075EF0075EE4075E50075E48075EBCC750F
:10100700D41275D21275ED0075EC0075EA4075DCE7
:021017000222B3
:100F530090012A120B7600000000900003120A5938
:100F630090012AF0900002120A5990012BF0900090
:100F730001120A5990012CF0120A4090012DF0C27F
:100F8300EC90012AE0F8A3E0F9A3E0FAA3E0FB7FE9
:100F9300B07E717D0B7C00120AD8EFF404F5C2D247
:010FA300EC61
:010FA400222A
:0300430002006652
:10006600C0E0C0F0C083C082C0D075D000C000C060
:0D00760001C002C003C004C005C006C007E1
:1000830020D903020565E5D9543F700302053224E4
:10009300FE603624E270030204B124FE601924F2E8
:1000A3006040240F600302056375D300E5D254FC5E
:1000B3004402F5D202056375D500E5D454FC44022D
:1000C300F5D47826760002056320DE030205637803
:1000D30027A6DB78697600E5D454F34408F5D40207
:1000E3000563AFDB900128E4F0A3EFF0900128E073
:1000F3007004A3E06408600302047A900007E0FE42
:10010300900006E0FDEDFF90004AEEF0A3EFF090C3
:100113000128E4F0A3F0900001E090004CF090007F
:1001230000E05460604990004CE024E07003020456
:100133008324FE700302048304600302047A9000A4
:100143005C7401F0A37400F0A37455F0900128E4EB
:10015300F0A37407F090004AE0FEA3E0FFC39440CD
:10016300EE940040077E007F4002028A02028A90DA
:10017300004CE0B40B004003020478900185F8289A
:10018300287302044F02030B02047802038902045A
:10019300780202CF0201A60204780202DB02030006
:1001A300020483900003E024FE602414603A2402D6
:1001B300600302025190005C74FFF0A3740CF0A37F
:1001C30074F5F0900128E4F0A37412F002025A903F
:1001D300005C74FFF0A3740DF0A37407F090012882
:1001E300E4F0A37443F0806F900002E0FF70199075
:1001F300005C74FFF0A3740DF0A3744AF09001281F
:10020300E4F0A37404F0804FEFB4011990005C7420
:10021300FFF0A3740DF0A37476F0900128E4F0A32B
:10022300740AF08032EF90005CB4020C74FFF0A308
:10023300740DF0A37462800A74FFF0A3740DF0A32D
:10024300744EF0900128E4F0A37414F08009900137
:1002530028E4F0A374FFF0900128E0FEA3E0FFD3AD
:1002630090004BE09F90004AE09E4005EEF0A3EF24
:10027300F090004AE0FEA3E0FFC39440EE940040F8
:10028300067E007F408000900128EEF0A3EFF090FF
:100293000128E0FEA3E0FF78007C007D0190005C74
:1002A300E0FBA3E0FAA3E0F9120A1A900128E0FEAA
:1002B300A3E0FFC390004BE09FF090004AE09EF064
:1002C30090005DEE8FF0120A86020483900002E034
:1002D300FF90004AE4020472900048E0900000F0AE
:1002E300C390004BE0940190004AE0940050030255
:1002F3000483900128E4F0A304F002048390000235
:10030300E0900048F0020483900000E0541FFD7069
:1003130020900003E0FE900002E0FBEB64014E70CE
:100323000D900D0E9330E50302048302047A020458
:100333007AED6402704D900004E014603D1460296E
:1003430014601524826028146014147033E5D654A5
:10035300BC4402F5D602048353D673020483E5D466
:1003630054BC4402F5D402048353D473020483E5DA
:10037300D254BC4402F5D202048353D273020483E1
:1003830002047A02047A900000E0541F7043900044
:1003930003E0FE900002E0FDED64014E7030900D2D
:1003A3000E9330E5267BFF7A0C79DA120650E5A22C
:1003B30020E7FB75A15575A1AA75A9C143870275ED
:1003C300A15575A1AA75A90002048302047A020447
:1003D3007A900000E0541F6402706F900003E0FE07
:1003E300900002E0FDED4E705F900005E0FE90008E
:1003F30004E0FDEDFFEE704EEF14604214602B1429
:1004030060142482602E14601714703AE5D654BF2A
:100413004403F5D6806AE5D6547F440CF5D6806054
:10042300E5D454BF4403F5D48056E5D4547F440C3B
:10043300F5D4804CE5D254BF4403F5D28042E5D2D3
:10044300547F440CF5D2802F802D802B900000E444
:10045300F0A3F090004AE0FEA3E0FFC39402EE9401
:10046300009001284008E4F0A37402F08012EEF03B
:10047300A3EFF0800B8000900128E4F0A374FFF059
:10048300900128E0FEA3E0FFF44E700C90004C7442
:10049300FFF075DCCF020563D3EF9440EE94005078
:1004A300048FDD800375DD0075DCC00205639000F9
:1004B3004CE024FB606214706E90004AE0FEA3E0FF
:1004C300FFC39440EE940040067E007F408000907E
:1004D3000128EEF0A3EFF0900128E0FEA3E0FF78FF
:1004E300007C007D0190005CE0FBA3E0FAA3E0F94F
:1004F300120A1A900128E0FEA3E0FFC390004BE02C
:100503009FF090004AE09EF090005DEE8FF0120A9B
:10051300868FDD63DC40804890004AA3E0FFE5E37B
:1005230054804FF5E3800375DD0075DC0280319064
:10053300004CE06420702330DE26AFDBFE78557C70
:10054300007D017B017A007900120A1A7B017A008F
:100553007955120F5375DD00800675DD0043DC020B
:10056300C2D930D8307BFF7A0C79E312065075DCA0
:100573000275D21275D41275E300C2DAC2D9C2D899
:1005830078247600087600782876001876009000A4
:1005930048E4F018F630DA2CC2DAE5DA30E2287BE8
:1005A300FF7A0C79DA120650E5A220E7FB75A15514
:1005B30075A1AA75A9C143870275A15575A1AA752D
:0705C300A900800375D8FFB9
:1005CA00D007D006D005D004D003D002D001D00085
:0B05DA00D0D0D082D083D0F0D0E0322F
:03005300020FA5F4
:100FA500C0E0C0D075D000C00030C0187824E60677
:100FB5002429F8A6C17828067824E6C3944040027F
:0B0FC5007600C2C0D000D0D0D0E032D7
:100BFF00E4900153F01200317F057E0012104E1267
:100C0F000D801200467BFF7A0C79EA120650121003
:100C1F0036120FF712108FE4F5DDF5D3F5D59000EE
:100C2F0048E060FA7827E6601B7869E6062480F5CD
:100C3F0082E43400F583E0FF1210C6782716E670C1
:100C4F000353D4F37828E66006900153E004F0785C
:100C5F0026E670CA7828E6900152F0E0FFD39400A0
:100C6F0040BCEFD394275006A3E0946440B0E490C7
:100C7F000153F0900152E0FF7825E62FFFE433FE99
:100C8F00D3EF9440EE648094804004744096F090CB
:100C9F000152E0FFC37828E69FF67E007825E62410
:100CAF0029F9E4FAFB78C07C007D01120A1A900141
:100CBF0052E0FF782526F6E6C394404002E4F68F13
:0B0CCF00D553D4FC78267601020C2DD2
:0C004600C2C7D2C5D2C475C2F3C2C12229
:0810BE0030C0FDC2C0AFC12229
:0810C6008FC130C1FDC2C1223F
:03000000020E15D8
:0C0E1500787FE4F6D8FD758169020E5C60
:10094A00E709F608DFFA8046E709F208DFFA803E8F
:10095A0088828C83E709F0A3DFFA8032E309F6087C
:10096A00DFFA8078E309F208DFFA807088828C83E4
:10097A00E309F0A3DFFA806489828A83E0A3F60898
:10098A00DFFA805889828A83E0A3F208DFFA804C72
:10099A0080D280FA80C680D4806980F28033801049
:1009AA0080A680EA809A80A880DA80E280CA8033B2
:1009BA0089828A83ECFAE493A3C8C582C8CCC5832A
:1009CA00CCF0A3C8C582C8CCC583CCDFE9DEE780FA
:1009DA000D89828A83E493A3F608DFF9ECFAA9F079
:1009EA00EDFB2289828A83ECFAE0A3C8C582C8CCCF
:1009FA00C583CCF0A3C8C582C8CCC583CCDFEADEE8
:100A0A00E880DB89828A83E493A3F208DFF980CC49
:100A1A0088F0EF60010E4E60C388F0ED2402B40442
:100A2A000050B9F582EB2402B4040050AF232345E9
:060A3A00822390099A736B
:100A4000BB010689828A83E0225002E722BBFE02B4
:090A5000E32289828A83E49322E7
:100A5900BB010CE58229F582E5833AF583E0225052
:100A690006E92582F8E622BBFE06E92582F8E2229C
:0D0A7900E58229F582E5833AF583E49322B6
:100A8600C5F0F8A3E028F0C5F0F8E58215827002FB
:060A96001583E038F02298
:100A9C0075F008758200EF2FFFEE33FECD33CDCC11
:100AAC0033CCC58233C5829BED9AEC99E582984094
:100ABC000CF582EE9BFEED9AFDEC99FC0FD5F0D671
:100ACC00E4CEFBE4CDFAE4CCF9A88222B800C1B99B
:100ADC000059BA002DEC8BF084CFCECDFCE5F0CBD9
:100AEC00F97818EF2FFFEE33FEED33FDEC33FCEB12
:100AFC0033FB10D703994004EB99FB0FD8E5E4F9CD
:100B0C00FA227818EF2FFFEE33FEED33FDEC33FCB9
:100B1C00C933C910D7059BE99A4007EC9BFCE99AAD
:100B2C00F90FD8E0E4C9FAE4CCFB2275F010EF2FF2
:100B3C00FFEE33FEED33FDCC33CCC833C810D707F2
:100B4C009BEC9AE899400AED9BFDEC9AFCE899F82D
:0E0B5C000FD5F0DAE4CDFBE4CCFAE4C8F922C0
:0C0B6A00ECF0A3EDF0A3EEF0A3EFF022FE
:100B7600A8828583F0D083D082120B8D120B8D1242
:100B86000B8D120B8DE473E493A3C583C5F0C58367
:100B9600C8C582C8F0A3C583C5F0C583C8C582C8C9
:010BA600222C
:1005E500E51A2457F582E43401F583E0051A2290D3
:1005F5000154301903900157E475F001120BB9024B
:100605000A402012E97F2ED2128018EF540F249051
:10061500D43440D4FF30160BEF24BFB41A00500376
:100625002461FFE51B6002151B051EE51E70020512
:100635001D30190E900154E475F001120BB9EF024B
:100645000BA7020FD07403D2198003E4C219F51A5F
:10065500900154120BD0E4F51BF51DF51EE51B604A
:10066500077F2012062880F5751CFFC213C212C22F
:1006750014C215C217C218C21A1205F4FF700D3044
:1006850019057F00120639AF1EAE1D22B4255FC2C3
:10069500D5C2161205F4FF24D0B40A00501A75F01D
:1006A5000A781B30D50508B6FF0106C6A426F62034
:1006B500D5047002D21580D924CFB41A00EF5004A6
:1006C500C2E5D21602083AD21380C6D21280C0D231
:1006D5001480BCD2D580BAD21780B47F20120628E8
:1006E5002014077401B51B0040F11205E5FF120641
:1006F50028020662D21AD21880951205E5FB12056A
:10070500E5FA1205E5F94A4B7006790B7A097BFF84
:1007150020142EE51B602A7E008E82758300120A46
:100725005960060EEE651C70F0C2D5EBC0E0EAC05C
:10073500E0E9C0E0EE120881D0E0F9D0E0FAD0E0BF
:10074500FB120A40FF60AAEBC0E0EAC0E0E9C0E0A6
:10075500120628D0E02401F9D0E03400FAD0E0FBFD
:10076500E51C0460DCD51CD980877BFF7A08797D80
:10077500D214809C791080027908C218C21A8008A8
:10078500D2D5790A8004790AC2D5E51C047002F530
:100795001CE4FAFDFEFF1205E5FC7B08201313128D
:1007A50005E5FD7B1030120A1205E5FE1205E5FF91
:1007B5007B20EC3382D592D55013C3E43012069FCB
:1007C500FFE49EFEE42013039DFDE49CFCE4CBF8CE
:1007D500C213EC700CCFCECDCCE824F8F870F380C2
:1007E50017C3EF33FFEE33FEED33FDEC33FCEB3394
:1007F500FB994002FB0FD8E9EB301305F8D0E0C4B4
:1008050048B213C0E00AEC4D4E4F78207B0070C211
:10081500EAB51C0040BCC0E0120883D0F0D0E0204F
:100825001304C4C0E0C4B213C0F0120611D0F0D551
:10083500F0EB020662120BD906FF5307795806D072
:100845004C06CC42077D4F07854407854906E5439D
:08085500078B55076F46076F82
:10085D0045076F47092B5006D42D06D82E06FB2BC6
:10086D0006DC2306F92009142A069448000006F335
:10087D003F3F3F00790AA2D5201514301709B91052
:10088D00020404B9080104A2D52018025001042065
:10089D0014689214B51B005034C0E07F2030151938
:1008AD007F30A21472187217500F1208DAC214C2D8
:1008BD0018C217C21A7F30800F301703E9C0E0123B
:1008CD000628301703D0E0F9D0E0B51BCC30171750
:1008DD007F30B9100C1206287F583016077F7880AC
:1008ED0003B908031206283014057F2D0206287F50
:1008FD0020201AF87F2B2018F322921480CF286E17
:10090D00756C6C2900D2131205E53013F8C21378FB
:10091D001B30D50108F60206942D50434958120597
:10092D00E52403B405004001E4900926931206194D
:0D093D00743A120619D215751B04020779D1
:100E21000210D1E493A3F8E493A34003F68001F206
:100E310008DFF48029E493A3F85407240CC8C333D2
:100E4100C4540F4420C8834004F456800146F6DFA1
:100E5100E4800B0102040810204080901019E47E08
:100E6100019360BCA3FF543F30E509541FFEE49396
:100E7100A360010ECF54C025E060A840B8E493A35D
:100E8100FAE493A3F8E493A3C8C582C8CAC583CA88
:100E9100F0A3C8C582C8CAC583CADFE9DEE780BE40
:0110350000BA
:100BA700BB010689828A83F0225002F722BBFE012D
:020BB700F32227
:100BB900F8E0FBA3A3E0F925F0F0E58215827002C5
:070BC9001583E0FA38F02269
:090BD000EBF0A3EAF0A3E9F02226
:100BD900D083D082F8E4937012740193700DA3A3AB
:100BE90093F8740193F5828883E4737402936860BF
:060BF900EFA3A3A380DFBF
:100FD000EFB40A07740D120FDB740A309811A89948
:100FE000B8130CC2983098FDA899C298B811F63081
:070FF00099FDC299F5992259
:00000001FF
