:100C3A00422E3D2020253034780A007E0060202094
:100C4A00433A5C4849445F524543562E455845202D
:100C5A0020200D2020200012011001000000083180
:100C6A0051072000110000000105010906A1010534
:100C7A000719E029E71500250195087501810295F4
:100C8A000875018101050819012903950375019168
:100C9A0002950175059101050719002AFF00150043
:100CAA0026FF00950675088100C00600FF0901A10C
:100CBA0001090215002600FF750895408106090200
:100CCA0015002600FF750895409106C009024200EA
:100CDA00020100A0320904000001030101000921F8
:100CEA00110100012241000705810308000A0904D5
:100CFA000100020300000009211001210122220043
:0E0D0A00070582034000320705020340000A7D
:100F59004300DBFF0C47604000EC0000000000008C
:100F69000000000000000000000000000000000078
:100F79000000000000000000000000000000000068
:100F89000000000000000000000000000000000058
:100F9900000000000000000000004800D10000002F
:090FA90000000000004100D0002E
:10106100C2EAE4F5E2CE7400CECF740ACF8EEF8FE0
:10107100EECE7400CECF7400CF8EED8FECCE740027
:10108100CECF7450CF8EE58FE443EA4075D212750E
:10109100DC0243EB0C75D412F5E375D18075E229BE
:0C10A10043D10175D8FF75E107D2EA22A7
:1010D400C8740AC8CC7400CCCD7401CD7B017A00ED
:1010E40079D17E007F081208E375D30853D2FCE55A
:0610F400D2540360FA2251
:1010FA00C87490C8CC7400CCCD7401CD7B017A0041
:10110A0079EC7E007F401208E375D54053D4FCE5A4
:06111A00D4540360FA2228
:0300430002004672
:0D004600C0E0C0F0C083C082C0D075D008FB
:1000530020D903020465E5D9543F700302045224F6
:10006300FE602324E270030203CA14602424F160B7
:1000730034240E600302046375D500E5D454FC44B4
:1000830002F5D4020463E5D454F34402F5D4020424
:100093006375D300E5D254FC4402F5D29000DA74C0
:1000A30001F002046390012CE5DBF0E064086003D7
:1000B300020391900006E09000DFF0900007E070EB
:1000C3000D9000DFE0D3947F74809480400690000D
:1000D300DF747FF090012CE4F0900000E0FF5460A7
:1000E300602A7E00EF6421700BA3E0640970059021
:1000F30000DE04F0EF64214E700A900001E0640A10
:100103007002F5DD90012CE4F0020397900001E00A
:100113009000E0F0E0B40B00400302038790012756
:10012300F82828730203610202770203870202C0E0
:1001330002038702024002014802038702024B02C4
:10014300026C020397900003E024FE601E24E0602B
:10015300302421706F9000E974FFF0A3740CF0A3B6
:100163007461F090012C7412F0805F9000E974FFC9
:10017300F0A3740CF0A374D6F090012C7442F080B9
:1001830049900004E0FF7E0070169000E974FFF0D0
:10019300A3740CF0A37473F090012C7441F0802AC3
:1001A300EF64014E70169000E974FFF0A3740CF035
:1001B300A374B4F090012C7422F0800E90012C747F
:1001C300FFF0800690012C74FFF090012CE0FFF407
:1001D30070030203979000DFE0D39F400890012C47
:1001E300E09000DFF09000DFE0C394087480948017
:1001F30040047F0880059000DFE0FF90012CEFF0C2
:10020300E0FF7E00C87400C8CC7400CCCD7401CD6F
:100213009000E9E0FBA3E0FAA3E0F91208E3900001
:10022300DFE0FF90012CE0FEC3EF9E9000DFF0EED5
:10023300FF9000EAE48FF012092202039790000274
:10024300E09000DFF00203979000D9E0900000F007
:100253009000DFE0C39401748094805003020397FD
:1002630090012C7401F0020397900002E09000D9F2
:10027300F0020397900000E0541F64027036900070
:1002830004E014601D2480600E14701CE5D454BC7B
:100293004402F5D4020397E5D254BC4402F5D202DA
:1002A300039753D27302039790012C74FFF0020358
:1002B3009702039790012C74FFF0020397900000BC
:1002C300E0541FFD7C00702D900003E0FE900002BF
:1002D300E0FBEEEB64014E7013900CDD9330E5030D
:1002E30002039790012C74FFF002039790012C7482
:1002F300FFF0020397ED64024C705B900003E0FE95
:10030300900002E0FDEEED4E7044900005E0FE909B
:100313000004E0FDEEEDFFEE702AEF24FE601124F1
:1003230081601714701EE5D454BF4403F5D4806470
:10033300E5D4547F440CF5D4805AE5D254BF44032A
:10034300F5D2805090012C74FFF0804880469001D4
:100353002C74FFF0803E90012C74FFF080369000E7
:1003630000E4F0A3F09000DFE0C394027480948073
:10037300400890012C7402F0801A9000DFE0900195
:100383002CF0801090012C74FFF0800880069001FF
:100393002C74FFF090012CE0FF7E00F470099000B4
:1003A300E074FFF0020463D3EF9408EE648094805A
:1003B300500C90012CE0F5DD75DCC002046375DDA3
:1003C3000075DCC00204639000E0E024FB6063146A
:1003D300706F9000DFE0C394087480948040047FC2
:1003E3000880059000DFE0FF90012CEFF0E0FF7E36
:1003F30000C87400C8CC7400CCCD7401CD9000E962
:10040300E0FBA3E0FAA3E0F91208E39000DFE0FFCA
:1004130090012CE0FEC3EF9E9000DFF0EEFF900012
:10042300EAE48FF012092290012CE0F5DD63DC4051
:10043300800FE5E35480FF9000DFE04FF5E375DCC8
:100443000290012CE0F47018F5DD75DC0280119048
:10045300012CE5DBF09000E0E0FF75DD0075DC00CA
:10046300C2D930D81275DC0275D21075D41275E377
:1004730000C2DAC2D9C2D830DA23C2DAE5DA30E20E
:100483001FE5A220E7FB75A15575A1AA75A98143B4
:10049300870275A15575A1AA75A900800375D8FFB8
:0B04A300D0D0D082D083D0F0D0E03267
:100AD400120909FFCEEFCECFCFFD3395E0FCC3ED75
:100AE4009461EC648094804011D3ED947AEC64803A
:100AF40094805006CFCFEF24E0FECFEECFEFFD334E
:100B040095E0FCC3ED9441EC648094804017D3EDF0
:100B1400945AEC64809480500CCFCFEF24C390009F
:100B2400D3F0020C04EEFD3395E0FCC3ED9431ECFC
:100B3400648094804015D3ED9439EC6480948050A3
:100B44000AEE24ED9000D3F0020C04CFEECFEF12A6
:100B54000A430B9C0D0B94200BF8210BB22B0BE3D7
:100B64002E0BCD2F0BDB300BA43A0B8C5C0BBF5F31
:100B74000B7E600BEB7E00000C049000D17408F037
:100B84009000D37415F080789000D37431F08070A5
:100B94009000D37402F080689000D37428F08060D1
:100BA4009000D17402F09000D37433F08052E4903A
:100BB40000D1F09000D37457F080459000D17402B6
:100BC400F09000D3742DF080379000D17405F0902C
:100BD40000D37416F080299000D37427F0802190FC
:100BE40000D37437F080199000D17404F09000D3CE
:100BF40004F0800C9000D17404F09000D37408F0D9
:100C04007F147E001211209000DAE060FA1210D4F2
:100C14009000DAE060FA7F147E00121120E4900064
:100C2400D1F09000D3F09000DAE060FA1210D49082
:050C340000DAE060FAA7
:010C39002298
:1000030090012F7401F090012FE0C3944074809409
:1000130080501B12101490012FE024ECF582E4347D
:0E00230000F583E02FF090012FE004F080D86C
:0100310022AC
:100D18007815E6FF08E690012DCFF0A3EFF0E5C3C4
:100D280030E72490012DE5C5F0A3E5C4F07BFF7AF8
:100D38000C793A90012DE0547FFFA3E0900132CF67
:100D4800F0A3EFF01205199000D0E060257816E6C0
:100D5800249CFF18E634FFFEC390012EE09F90010B
:100D68002DE09E500D9000ECE004F01200031210EC
:100D7800FA229000D0E0703E9000DBE0FBA3E0FA9E
:100D8800A3E0F9120AD49000DCE475F001120922FC
:100D98009000DBE0FBA3E0FAA3E0F9120909701662
:100DA8007BFF7A0C7945120AD47FC87E0012112085
:060DB8009000D07401F070
:010DBE002212
:0B116000412E3D2020253034780A008D
:040FB2000215000024
:100FB70012114E7F057E00121120120DBF12106113
:100FC700D2AFE4F5D3F5D59000DAF09000DEF07FEC
:100FD7000112116B7F03120EED9000DEE0640170C9
:100FE70005120D1880F3E5C330E7EE7815A6C5089E
:100FF700A6C47BFF7A11796018E6547FFF08E69054
:0D1007000132CFF0A3EFF012051980CD22C9
:0B116B00EF600443C3102253C3EF22C7
:100EED0053C3F8EFFD7C006060640170085393FEFE
:100EFD0043C3018054ED64024C70085393FD43C30A
:100F0D00028046ED64034C70085393EF43C3038096
:100F1D0038ED64044C70085393DF43C304802AED0D
:100F2D0064054C70085393BF43C305801CED6406E4
:100F3D004C700853937F43C306800EED64074C70CD
:0C0F4D000543C30780037FFF227F0022C2
:10114E0075A15575A1AAE5B954F84404F5B9E4F5AD
:02115E00A122CC
:0E003200EF4E600905A1EF1F70011E80F32242
:10112000AD07AC06ED4C600E7FE87E03120032ED99
:071130001D70011C80EE227E
:0411A00043C6102210
:100DBF00C29FD29EC29DC2CDC2CC43878090012DCF
:100DCF00120A1200000082E47B0AFAF9F890012D52
:100DDF00E0FCA3E0FDA3E0FEA3E0FF120974900185
:100DEF0031EBF090012DE0FCA3E0FDA3E0FEA3E0CA
:100DFF00FFE47B0AFAF9F812097490012D120A0622
:100E0F00900131E0C3940574809480402590012DAA
:100E1F00E0FCA3E0FDA3E0FEA3E0FFE4FAF9F8EFA6
:100E2F002401FFEA3EFEE93DFDE83CFC90012D1256
:100E3F000A06E589540F4420F58943C9A090012D76
:100E4F00E0A3E0A3E0A3E0F404F58DD28ED299D213
:010E5F009CF6
:010E6000226F
:081180003098FDC298AF9922DE
:081188008F993099FDC29922F4
:0A117600C2C7D2C5D2C475C2F3226D
:0811900030C0FDC2C0AFC12256
:081198008FC130C1FDD2C1225C
:1011370075A15575A1AAEF600543B101800353B1AD
:07114700FEE4F5A1F5FF2213
:030040008FFF220D
:03000000020E618C
:0C0E6100787FE4F6D8FD758121020EA810
:10081300E709F608DFFA8046E709F208DFFA803EC7
:1008230088828C83E709F0A3DFFA8032E309F608B4
:10083300DFFA8078E309F208DFFA807088828C831C
:10084300E309F0A3DFFA806489828A83E0A3F608D0
:10085300DFFA805889828A83E0A3F208DFFA804CAA
:1008630080D280FA80C680D4806980F28033801081
:1008730080A680EA809A80A880DA80E280CA8033EA
:1008830089828A83ECFAE493A3C8C582C8CCC58362
:10089300CCF0A3C8C582C8CCC583CCDFE9DEE78032
:1008A3000D89828A83E493A3F608DFF9ECFAA9F0B1
:1008B300EDFB2289828A83ECFAE0A3C8C582C8CC07
:1008C300C583CCF0A3C8C582C8CCC583CCDFEADE20
:1008D300E880DB89828A83E493A3F208DFF980CC82
:1008E30088F0EF60010E4E60C388F0ED2402B4047B
:1008F3000050B9F582EB2402B4040050AF23234522
:06090300822390086373DB
:10090900BB010689828A83E0225002E722BBFE02EC
:09091900E32289828A83E493221F
:10092200C5F0F8A3E028F0C5F0F8E5821582700260
:060932001583E038F022FD
:1009380075F008758200EF2FFFEE33FECD33CDCC76
:1009480033CCC58233C5829BED9AEC99E5829840F9
:100958000CF582EE9BFEED9AFDEC99FC0FD5F0D6D6
:10096800E4CEFBE4CDFAE4CCF9A88222B800C1B900
:100978000059BA002DEC8BF084CFCECDFCE5F0CB3E
:10098800F97818EF2FFFEE33FEED33FDEC33FCEB77
:1009980033FB10D703994004EB99FB0FD8E5E4F932
:1009A800FA227818EF2FFFEE33FEED33FDEC33FC1F
:1009B800C933C910D7059BE99A4007EC9BFCE99A13
:1009C800F90FD8E0E4C9FAE4CCFB2275F010EF2F58
:1009D800FFEE33FEED33FDCC33CCC833C810D70758
:1009E8009BEC9AE899400AED9BFDEC9AFCE899F893
:0E09F8000FD5F0DAE4CDFBE4CCFAE4C8F92226
:0C0A0600ECF0A3EDF0A3EEF0A3EFF02263
:100A1200A8828583F0D083D082120A29120A291271
:100A22000A29120A29E473E493A3C583C5F0C58396
:100A3200C8C582C8F0A3C583C5F0C583C8C582C82E
:010A42002291
:100A4300D083D082F8E4937012740193700DA3A342
:100A530093F8740193F5828883E473740293686056
:060A6300EFA3A3A380DF56
:1004AE00E5102432F582E43401F583E00510229044
:1004BE00012F300703900132E475F001120AB402E5
:1004CE0009092000E97F2ED2008018EF540F2490E6
:1004DE00D43440D4FF30040BEF24BFB41A005003C1
:1004EE002461FFE511600215110514E51470020573
:1004FE001330070E90012FE475F001120AB4EF02CB
:10050E000A960210AD7403D2078003E4C207F510F9
:10051E0090012F120ACBE4F511F513F514E51160D5
:10052E00077F201204F180F57512FFC201C200C2CE
:10053E0002C203C205C206C2081204BDFF700D300E
:10054E0007057F00120502AF14AE1322B4255FC259
:10055E00D5C2041204BDFF24D0B40A00501A75F09F
:10056E000A781130D50508B6FF0106C6A426F62076
:10057E00D5047002D20380D924CFB41A00EF5004F0
:10058E00C2E5D204020703D20180C6D20080C0D2D7
:10059E000280BCD2D580BAD20580B47F201204F17D
:1005AE002002077401B5110040F11204AEFF1204CF
:1005BE00F102052BD208D20680951204AEFB12046E
:1005CE00AEFA1204AEF94A4B700679D47A077BFF65
:1005DE0020022EE511602A7E008E82758300120A9B
:1005EE006960060EEE651270F0C2D5EBC0E0EAC08F
:1005FE00E0E9C0E0EE12074AD0E0F9D0E0FAD0E030
:10060E00FB120909FF60AAEBC0E0EAC0E0E9C0E016
:10061E001204F1D0E02401F9D0E03400FAD0E0FB6E
:10062E00E5120460DCD512D980877BFF7A07794604
:10063E00D202809C791080027908C206C208800816
:10064E00D2D5790A8004790AC2D5E512047002F572
:10065E0012E4FAFDFEFF1204AEFC7B082001131219
:10066E0004AEFD7B1030000A1204AEFE1204AEFF83
:10067E007B20EC3382D592D55013C3E43000069F15
:10068E00FFE49EFEE42001039DFDE49CFCE4CBF818
:10069E00C201EC700CCFCECDCCE824F8F870F3800C
:1006AE0017C3EF33FFEE33FEED33FDEC33FCEB33CC
:1006BE00FB994002FB0FD8E9EB300105F8D0E0C4FE
:1006CE0048B201C0E00AEC4D4E4F78207B0070C25C
:1006DE00EAB5120040BCC0E012074CD0F0D0E020CA
:1006EE000104C4C0E0C4B201C0F01204DAD0F0D5E7
:1006FE00F0EB02052B120A4305C853064258059922
:10070E004C05954206464F064E44064E4905AE43ED
:08071E00065455063846063862
:100726004506384707F450059D2D05A12E05C42B17
:1007360005A52305C22007DD2A055D48000005BC86
:100746003F3F3F00790AA2D5200314300509B910AE
:10075600020404B9080104A2D520060250010420AF
:1007660002689202B511005034C0E07F20300319B0
:100776007F30A20272067205500F1207A3C202C290
:1007860006C205C2087F30800F300503E9C0E012BB
:1007960004F1300503D0E0F9D0E0B511CC300517EF
:1007A6007F30B9100C1204F17F583004077F78802F
:1007B60003B908031204F13002057F2D0204F17F0C
:1007C600202008F87F2B2006F322920280CF286E85
:1007D600756C6C2900D2011204AE3001F8C20178A2
:1007E6001130D50108F602055D2D50434958120413
:1007F600AE2403B405004001E49007EF931204E22F
:0D080600743A1204E2D20375110402064296
:1010140090004A120AA87810EC4D4E4F70047CA53B
:101024007DA5C3EC13FCED13FDEE13FEEF13FF508F
:1010340010EC64CCFCED644CFDEE644EFEEF64CE2B
:10104400FFD8DF90004A120A06EE547FFE22900079
:0D1054004AEEF0EFA3F0A374A5F0A3F02284
:100E6D00020FB7E493A3F8E493A34003F68001F2D5
:100E7D0008DFF48029E493A3F85407240CC8C33386
:100E8D00C4540F4420C8834004F456800146F6DF55
:100E9D00E4800B0102040810204080900F59E47E7D
:100EAD00019360BCA3FF543F30E509541FFEE4934A
:100EBD00A360010ECF54C025E060A840B8E493A311
:100ECD00FAE493A3F8E493A3C8C582C8CAC583CA3C
:100EDD00F0A3C8C582C8CAC583CADFE9DEE780BEF4
:010FB600003A
:100A6900BB010CE58229F582E5833AF583E0225042
:100A790006E92582F8E622BBFE06E92582F8E2228C
:0D0A8900E58229F582E5833AF583E49322A6
:100A9600BB010689828A83F0225002F722BBFE013F
:020AA600F32239
:0C0AA800E0FCA3E0FDA3E0FEA3E0FF22C1
:100AB400F8E0FBA3A3E0F925F0F0E58215827002CB
:070AC4001583E0FA38F0226F
:090ACB00EBF0A3EAF0A3E9F0222C
:1010AD00EFB40A07740D1210B8740A309811A8998C
:1010BD00B8130CC2983098FDA899C298B811F630A3
:0710CD0099FDC299F599227B
:00000001FF
